{
  "_format": "hh-sol-artifact-1",
  "contractName": "QuboRecurring",
  "sourceName": "contracts/QuboReccuring.sol",
  "abi": [
    {
      "inputs": [],
      "stateMutability": "nonpayable",
      "type": "constructor"
    },
    {
      "anonymous": false,
      "inputs": [
        {
          "indexed": false,
          "internalType": "uint256",
          "name": "ID",
          "type": "uint256"
        },
        {
          "indexed": false,
          "internalType": "address",
          "name": "Customer",
          "type": "address"
        },
        {
          "indexed": false,
          "internalType": "address",
          "name": "Merchant",
          "type": "address"
        },
        {
          "indexed": false,
          "internalType": "uint256",
          "name": "Allowance",
          "type": "uint256"
        },
        {
          "indexed": false,
          "internalType": "address",
          "name": "TokenAddress",
          "type": "address"
        },
        {
          "indexed": false,
          "internalType": "uint256",
          "name": "LastExecutionDate",
          "type": "uint256"
        },
        {
          "indexed": false,
          "internalType": "uint256",
          "name": "SubscriptionPeriod",
          "type": "uint256"
        },
        {
          "indexed": false,
          "internalType": "uint256",
          "name": "PeriodLength",
          "type": "uint256"
        }
      ],
      "name": "NewSubscription",
      "type": "event"
    },
    {
      "anonymous": false,
      "inputs": [
        {
          "indexed": false,
          "internalType": "address",
          "name": "Customer",
          "type": "address"
        },
        {
          "indexed": false,
          "internalType": "address",
          "name": "Merchant",
          "type": "address"
        }
      ],
      "name": "SubscriptionCancelled",
      "type": "event"
    },
    {
      "anonymous": false,
      "inputs": [
        {
          "indexed": false,
          "internalType": "address",
          "name": "Customer",
          "type": "address"
        },
        {
          "indexed": false,
          "internalType": "address",
          "name": "Merchant",
          "type": "address"
        },
        {
          "indexed": false,
          "internalType": "uint256",
          "name": "PaymentDate",
          "type": "uint256"
        },
        {
          "indexed": false,
          "internalType": "uint256",
          "name": "PaymentAmount",
          "type": "uint256"
        },
        {
          "indexed": false,
          "internalType": "uint256",
          "name": "NextPaymentDate",
          "type": "uint256"
        }
      ],
      "name": "SubscriptionPaid",
      "type": "event"
    },
    {
      "inputs": [
        {
          "internalType": "address",
          "name": "_customer",
          "type": "address"
        },
        {
          "internalType": "address",
          "name": "_merchant",
          "type": "address"
        },
        {
          "internalType": "uint256",
          "name": "_id",
          "type": "uint256"
        }
      ],
      "name": "cancelSubscription",
      "outputs": [],
      "stateMutability": "nonpayable",
      "type": "function"
    },
    {
      "inputs": [
        {
          "internalType": "uint256",
          "name": "_id",
          "type": "uint256"
        },
        {
          "internalType": "address",
          "name": "_merchant",
          "type": "address"
        },
        {
          "internalType": "uint256",
          "name": "_subscriptionPrice",
          "type": "uint256"
        },
        {
          "internalType": "address",
          "name": "_tokenAddress",
          "type": "address"
        },
        {
          "internalType": "uint256",
          "name": "_subscriptionPeriod",
          "type": "uint256"
        },
        {
          "internalType": "uint256",
          "name": "_periodLength",
          "type": "uint256"
        }
      ],
      "name": "createSubscription",
      "outputs": [],
      "stateMutability": "nonpayable",
      "type": "function"
    },
    {
      "inputs": [
        {
          "internalType": "address",
          "name": "_customer",
          "type": "address"
        },
        {
          "internalType": "uint256",
          "name": "_id",
          "type": "uint256"
        }
      ],
      "name": "executePayment",
      "outputs": [],
      "stateMutability": "nonpayable",
      "type": "function"
    },
    {
      "inputs": [
        {
          "internalType": "address",
          "name": "_customer",
          "type": "address"
        },
        {
          "internalType": "address",
          "name": "_merchant",
          "type": "address"
        },
        {
          "internalType": "uint256",
          "name": "_id",
          "type": "uint256"
        }
      ],
      "name": "getSubscription",
      "outputs": [
        {
          "components": [
            {
              "internalType": "uint256",
              "name": "ID",
              "type": "uint256"
            },
            {
              "internalType": "address",
              "name": "Customer",
              "type": "address"
            },
            {
              "internalType": "address",
              "name": "Merchant",
              "type": "address"
            },
            {
              "internalType": "uint256",
              "name": "Allowance",
              "type": "uint256"
            },
            {
              "internalType": "address",
              "name": "TokenAddress",
              "type": "address"
            },
            {
              "internalType": "uint256",
              "name": "LastExecuted",
              "type": "uint256"
            },
            {
              "internalType": "uint256",
              "name": "SubscriptionPeriod",
              "type": "uint256"
            },
            {
              "internalType": "uint256",
              "name": "PeriodLength",
              "type": "uint256"
            },
            {
              "internalType": "bool",
              "name": "IsOngoing",
              "type": "bool"
            }
          ],
          "internalType": "struct QuboRecurring.Subscription",
          "name": "",
          "type": "tuple"
        }
      ],
      "stateMutability": "view",
      "type": "function"
    },
    {
      "inputs": [
        {
          "internalType": "address",
          "name": "_customer",
          "type": "address"
        }
      ],
      "name": "getSubscriptionReceipts",
      "outputs": [
        {
          "components": [
            {
              "internalType": "uint256",
              "name": "ID",
              "type": "uint256"
            },
            {
              "internalType": "address",
              "name": "Customer",
              "type": "address"
            },
            {
              "internalType": "address",
              "name": "Merchant",
              "type": "address"
            },
            {
              "internalType": "uint256",
              "name": "Allowance",
              "type": "uint256"
            },
            {
              "internalType": "address",
              "name": "TokenAddress",
              "type": "address"
            },
            {
              "internalType": "uint256",
              "name": "DateCreated",
              "type": "uint256"
            },
            {
              "internalType": "enum QuboRecurring.user_role",
              "name": "UserRole",
              "type": "uint8"
            }
          ],
          "internalType": "struct QuboRecurring.Receipt[]",
          "name": "",
          "type": "tuple[]"
        }
      ],
      "stateMutability": "view",
      "type": "function"
    },
    {
      "inputs": [
        {
          "internalType": "address",
          "name": "",
          "type": "address"
        },
        {
          "internalType": "uint256",
          "name": "",
          "type": "uint256"
        }
      ],
      "name": "receipts",
      "outputs": [
        {
          "internalType": "uint256",
          "name": "ID",
          "type": "uint256"
        },
        {
          "internalType": "address",
          "name": "Customer",
          "type": "address"
        },
        {
          "internalType": "address",
          "name": "Merchant",
          "type": "address"
        },
        {
          "internalType": "uint256",
          "name": "Allowance",
          "type": "uint256"
        },
        {
          "internalType": "address",
          "name": "TokenAddress",
          "type": "address"
        },
        {
          "internalType": "uint256",
          "name": "DateCreated",
          "type": "uint256"
        },
        {
          "internalType": "enum QuboRecurring.user_role",
          "name": "UserRole",
          "type": "uint8"
        }
      ],
      "stateMutability": "view",
      "type": "function"
    },
    {
      "inputs": [
        {
          "internalType": "address",
          "name": "_customer",
          "type": "address"
        },
        {
          "internalType": "address",
          "name": "_merchant",
          "type": "address"
        },
        {
          "internalType": "uint256",
          "name": "_id",
          "type": "uint256"
        }
      ],
      "name": "subscriptionTimeRemaining",
      "outputs": [
        {
          "internalType": "uint256",
          "name": "",
          "type": "uint256"
        }
      ],
      "stateMutability": "view",
      "type": "function"
    },
    {
      "inputs": [
        {
          "internalType": "address",
          "name": "",
          "type": "address"
        },
        {
          "internalType": "address",
          "name": "",
          "type": "address"
        },
        {
          "internalType": "uint256",
          "name": "",
          "type": "uint256"
        }
      ],
      "name": "subscriptions",
      "outputs": [
        {
          "internalType": "uint256",
          "name": "ID",
          "type": "uint256"
        },
        {
          "internalType": "address",
          "name": "Customer",
          "type": "address"
        },
        {
          "internalType": "address",
          "name": "Merchant",
          "type": "address"
        },
        {
          "internalType": "uint256",
          "name": "Allowance",
          "type": "uint256"
        },
        {
          "internalType": "address",
          "name": "TokenAddress",
          "type": "address"
        },
        {
          "internalType": "uint256",
          "name": "LastExecuted",
          "type": "uint256"
        },
        {
          "internalType": "uint256",
          "name": "SubscriptionPeriod",
          "type": "uint256"
        },
        {
          "internalType": "uint256",
          "name": "PeriodLength",
          "type": "uint256"
        },
        {
          "internalType": "bool",
          "name": "IsOngoing",
          "type": "bool"
        }
      ],
      "stateMutability": "view",
      "type": "function"
    }
  ],
  "bytecode": "0x608060405234801561001057600080fd5b5061240d806100206000396000f3fe608060405234801561001057600080fd5b50600436106100885760003560e01c8063971b894a1161005b578063971b894a14610139578063a08ad97d14610155578063affb21d01461018b578063ef0bba2c146101c357610088565b806304a6101a1461008d57806339adcee5146100bd5780635ac2a4f3146100ed5780635be0e7f11461011d575b600080fd5b6100a760048036038101906100a2919061175c565b6101df565b6040516100b4919061189f565b60405180910390f35b6100d760048036038101906100d2919061175c565b6103d7565b6040516100e491906118ca565b60405180910390f35b610107600480360381019061010291906118e5565b61042d565b6040516101149190611ac6565b60405180910390f35b6101376004803603810190610132919061175c565b610626565b005b610153600480360381019061014e9190611ae8565b610822565b005b61016f600480360381019061016a9190611b75565b611144565b6040516101829796959493929190611bd3565b60405180910390f35b6101a560048036038101906101a0919061175c565b611210565b6040516101ba99989796959493929190611c51565b60405180910390f35b6101dd60048036038101906101d89190611b75565b6112e5565b005b6101e7611633565b6000808573ffffffffffffffffffffffffffffffffffffffff1673ffffffffffffffffffffffffffffffffffffffff16815260200190815260200160002060008473ffffffffffffffffffffffffffffffffffffffff1673ffffffffffffffffffffffffffffffffffffffff168152602001908152602001600020600083815260200190815260200160002060405180610120016040529081600082015481526020016001820160009054906101000a900473ffffffffffffffffffffffffffffffffffffffff1673ffffffffffffffffffffffffffffffffffffffff1673ffffffffffffffffffffffffffffffffffffffff1681526020016002820160009054906101000a900473ffffffffffffffffffffffffffffffffffffffff1673ffffffffffffffffffffffffffffffffffffffff1673ffffffffffffffffffffffffffffffffffffffff168152602001600382015481526020016004820160009054906101000a900473ffffffffffffffffffffffffffffffffffffffff1673ffffffffffffffffffffffffffffffffffffffff1673ffffffffffffffffffffffffffffffffffffffff1681526020016005820154815260200160068201548152602001600782015481526020016008820160009054906101000a900460ff16151515158152505090509392505050565b6000806103e58585856101df565b60c001516103f48686866101df565b60a001516104029190611d0d565b905080421115610416576000915050610426565b42816104229190611d41565b9150505b9392505050565b6060600160008373ffffffffffffffffffffffffffffffffffffffff1673ffffffffffffffffffffffffffffffffffffffff168152602001908152602001600020805480602002602001604051908101604052809291908181526020016000905b8282101561061b57838290600052602060002090600702016040518060e0016040529081600082015481526020016001820160009054906101000a900473ffffffffffffffffffffffffffffffffffffffff1673ffffffffffffffffffffffffffffffffffffffff1673ffffffffffffffffffffffffffffffffffffffff1681526020016002820160009054906101000a900473ffffffffffffffffffffffffffffffffffffffff1673ffffffffffffffffffffffffffffffffffffffff1673ffffffffffffffffffffffffffffffffffffffff168152602001600382015481526020016004820160009054906101000a900473ffffffffffffffffffffffffffffffffffffffff1673ffffffffffffffffffffffffffffffffffffffff1673ffffffffffffffffffffffffffffffffffffffff168152602001600582015481526020016006820160009054906101000a900460ff1660018111156105f6576105f561193e565b5b60018111156106085761060761193e565b5b815250508152602001906001019061048e565b505050509050919050565b3373ffffffffffffffffffffffffffffffffffffffff166106488484846101df565b6020015173ffffffffffffffffffffffffffffffffffffffff1614806106a757503373ffffffffffffffffffffffffffffffffffffffff1661068b8484846101df565b6040015173ffffffffffffffffffffffffffffffffffffffff16145b6106e6576040517f08c379a00000000000000000000000000000000000000000000000000000000081526004016106dd90611e1e565b60405180910390fd5b600115156106f58484846101df565b610100015115151461073c576040517f08c379a000000000000000000000000000000000000000000000000000000000815260040161073390611eb0565b60405180910390fd5b60008060008573ffffffffffffffffffffffffffffffffffffffff1673ffffffffffffffffffffffffffffffffffffffff16815260200190815260200160002060008473ffffffffffffffffffffffffffffffffffffffff1673ffffffffffffffffffffffffffffffffffffffff168152602001908152602001600020600083815260200190815260200160002060080160006101000a81548160ff0219169083151502179055507f4f63ff9c987ba9233a93b549bdb283252838f696fe1349ef76a85e2ae7f822e38383604051610815929190611ed0565b60405180910390a1505050565b60008390506001151561083633888a6101df565b610100015115150361087d576040517f08c379a000000000000000000000000000000000000000000000000000000000815260040161087490611f6b565b60405180910390fd5b8073ffffffffffffffffffffffffffffffffffffffff166370a08231336040518263ffffffff1660e01b81526004016108b69190611f8b565b602060405180830381865afa1580156108d3573d6000803e3d6000fd5b505050506040513d601f19601f820116820180604052508101906108f79190611fbb565b851115610939576040517f08c379a00000000000000000000000000000000000000000000000000000000081526004016109309061205a565b60405180910390fd5b6000831180156109495750600082115b610988576040517f08c379a000000000000000000000000000000000000000000000000000000000815260040161097f906120c6565b60405180910390fd5b6040518061012001604052808881526020013373ffffffffffffffffffffffffffffffffffffffff1681526020018773ffffffffffffffffffffffffffffffffffffffff1681526020018681526020018573ffffffffffffffffffffffffffffffffffffffff168152602001428152602001848152602001838152602001600115158152506000803373ffffffffffffffffffffffffffffffffffffffff1673ffffffffffffffffffffffffffffffffffffffff16815260200190815260200160002060008873ffffffffffffffffffffffffffffffffffffffff1673ffffffffffffffffffffffffffffffffffffffff16815260200190815260200160002060008981526020019081526020016000206000820151816000015560208201518160010160006101000a81548173ffffffffffffffffffffffffffffffffffffffff021916908373ffffffffffffffffffffffffffffffffffffffff16021790555060408201518160020160006101000a81548173ffffffffffffffffffffffffffffffffffffffff021916908373ffffffffffffffffffffffffffffffffffffffff1602179055506060820151816003015560808201518160040160006101000a81548173ffffffffffffffffffffffffffffffffffffffff021916908373ffffffffffffffffffffffffffffffffffffffff16021790555060a0820151816005015560c0820151816006015560e082015181600701556101008201518160080160006101000a81548160ff021916908315150217905550905050600160003373ffffffffffffffffffffffffffffffffffffffff1673ffffffffffffffffffffffffffffffffffffffff1681526020019081526020016000206040518060e001604052808981526020013373ffffffffffffffffffffffffffffffffffffffff1681526020018873ffffffffffffffffffffffffffffffffffffffff1681526020018781526020018673ffffffffffffffffffffffffffffffffffffffff16815260200142815260200160006001811115610c8857610c8761193e565b5b81525090806001815401808255809150506001900390600052602060002090600702016000909190919091506000820151816000015560208201518160010160006101000a81548173ffffffffffffffffffffffffffffffffffffffff021916908373ffffffffffffffffffffffffffffffffffffffff16021790555060408201518160020160006101000a81548173ffffffffffffffffffffffffffffffffffffffff021916908373ffffffffffffffffffffffffffffffffffffffff1602179055506060820151816003015560808201518160040160006101000a81548173ffffffffffffffffffffffffffffffffffffffff021916908373ffffffffffffffffffffffffffffffffffffffff16021790555060a0820151816005015560c08201518160060160006101000a81548160ff02191690836001811115610dd257610dd161193e565b5b02179055505050600160008773ffffffffffffffffffffffffffffffffffffffff1673ffffffffffffffffffffffffffffffffffffffff1681526020019081526020016000206040518060e001604052808981526020013373ffffffffffffffffffffffffffffffffffffffff1681526020018873ffffffffffffffffffffffffffffffffffffffff1681526020018781526020018673ffffffffffffffffffffffffffffffffffffffff168152602001428152602001600180811115610e9c57610e9b61193e565b5b81525090806001815401808255809150506001900390600052602060002090600702016000909190919091506000820151816000015560208201518160010160006101000a81548173ffffffffffffffffffffffffffffffffffffffff021916908373ffffffffffffffffffffffffffffffffffffffff16021790555060408201518160020160006101000a81548173ffffffffffffffffffffffffffffffffffffffff021916908373ffffffffffffffffffffffffffffffffffffffff1602179055506060820151816003015560808201518160040160006101000a81548173ffffffffffffffffffffffffffffffffffffffff021916908373ffffffffffffffffffffffffffffffffffffffff16021790555060a0820151816005015560c08201518160060160006101000a81548160ff02191690836001811115610fe657610fe561193e565b5b021790555050508073ffffffffffffffffffffffffffffffffffffffff166323b872dd3388886040518463ffffffff1660e01b815260040161102a939291906120e6565b6020604051808303816000875af1158015611049573d6000803e3d6000fd5b505050506040513d601f19601f8201168201806040525081019061106d9190612149565b6110ac576040517f08c379a00000000000000000000000000000000000000000000000000000000081526004016110a3906121e8565b60405180910390fd5b7fbb077fe89f3408ae4171d5fad3dc9059649dc398ab2b73686752142338843e5c87338888884289896040516110e9989796959493929190612208565b60405180910390a17fa57558827b52212b160ab7f6cc7aaaa834ea3faec58b1d537c042aabb8c172c43387428886426111229190611d0d565b604051611133959493929190612286565b60405180910390a150505050505050565b6001602052816000526040600020818154811061116057600080fd5b9060005260206000209060070201600091509150508060000154908060010160009054906101000a900473ffffffffffffffffffffffffffffffffffffffff16908060020160009054906101000a900473ffffffffffffffffffffffffffffffffffffffff16908060030154908060040160009054906101000a900473ffffffffffffffffffffffffffffffffffffffff16908060050154908060060160009054906101000a900460ff16905087565b600060205282600052604060002060205281600052604060002060205280600052604060002060009250925050508060000154908060010160009054906101000a900473ffffffffffffffffffffffffffffffffffffffff16908060020160009054906101000a900473ffffffffffffffffffffffffffffffffffffffff16908060030154908060040160009054906101000a900473ffffffffffffffffffffffffffffffffffffffff16908060050154908060060154908060070154908060080160009054906101000a900460ff16905089565b3373ffffffffffffffffffffffffffffffffffffffff166113078333846101df565b6040015173ffffffffffffffffffffffffffffffffffffffff1614611361576040517f08c379a000000000000000000000000000000000000000000000000000000000815260040161135890611e1e565b60405180910390fd5b600115156113708333846101df565b61010001511515146113b7576040517f08c379a00000000000000000000000000000000000000000000000000000000081526004016113ae90611eb0565b60405180910390fd5b600115156113c68333846115e7565b151503611408576040517f08c379a00000000000000000000000000000000000000000000000000000000081526004016113ff9061234b565b60405180910390fd5b60006114158333846101df565b608001519050426000808573ffffffffffffffffffffffffffffffffffffffff1673ffffffffffffffffffffffffffffffffffffffff16815260200190815260200160002060003373ffffffffffffffffffffffffffffffffffffffff1673ffffffffffffffffffffffffffffffffffffffff1681526020019081526020016000206000848152602001908152602001600020600501819055508073ffffffffffffffffffffffffffffffffffffffff166323b872dd84336114d88733886101df565b606001516040518463ffffffff1660e01b81526004016114fa939291906120e6565b6020604051808303816000875af1158015611519573d6000803e3d6000fd5b505050506040513d601f19601f8201168201806040525081019061153d9190612149565b61157c576040517f08c379a0000000000000000000000000000000000000000000000000000000008152600401611573906123b7565b60405180910390fd5b7fa57558827b52212b160ab7f6cc7aaaa834ea3faec58b1d537c042aabb8c172c48333426115ab8733886101df565b606001516115ba8833896101df565b60c00151426115c99190611d0d565b6040516115da959493929190612286565b60405180910390a1505050565b6000806115f58585856101df565b60c001516116048686866101df565b60a001516116129190611d0d565b90508042111561162657600091505061162c565b60019150505b9392505050565b60405180610120016040528060008152602001600073ffffffffffffffffffffffffffffffffffffffff168152602001600073ffffffffffffffffffffffffffffffffffffffff16815260200160008152602001600073ffffffffffffffffffffffffffffffffffffffff1681526020016000815260200160008152602001600081526020016000151581525090565b600080fd5b600073ffffffffffffffffffffffffffffffffffffffff82169050919050565b60006116f3826116c8565b9050919050565b611703816116e8565b811461170e57600080fd5b50565b600081359050611720816116fa565b92915050565b6000819050919050565b61173981611726565b811461174457600080fd5b50565b60008135905061175681611730565b92915050565b600080600060608486031215611775576117746116c3565b5b600061178386828701611711565b935050602061179486828701611711565b92505060406117a586828701611747565b9150509250925092565b6117b881611726565b82525050565b6117c7816116e8565b82525050565b60008115159050919050565b6117e2816117cd565b82525050565b610120820160008201516117ff60008501826117af565b50602082015161181260208501826117be565b50604082015161182560408501826117be565b50606082015161183860608501826117af565b50608082015161184b60808501826117be565b5060a082015161185e60a08501826117af565b5060c082015161187160c08501826117af565b5060e082015161188460e08501826117af565b506101008201516118996101008501826117d9565b50505050565b6000610120820190506118b560008301846117e8565b92915050565b6118c481611726565b82525050565b60006020820190506118df60008301846118bb565b92915050565b6000602082840312156118fb576118fa6116c3565b5b600061190984828501611711565b91505092915050565b600081519050919050565b600082825260208201905092915050565b6000819050602082019050919050565b7f4e487b7100000000000000000000000000000000000000000000000000000000600052602160045260246000fd5b6002811061197e5761197d61193e565b5b50565b600081905061198f8261196d565b919050565b600061199f82611981565b9050919050565b6119af81611994565b82525050565b60e0820160008201516119cb60008501826117af565b5060208201516119de60208501826117be565b5060408201516119f160408501826117be565b506060820151611a0460608501826117af565b506080820151611a1760808501826117be565b5060a0820151611a2a60a08501826117af565b5060c0820151611a3d60c08501826119a6565b50505050565b6000611a4f83836119b5565b60e08301905092915050565b6000602082019050919050565b6000611a7382611912565b611a7d818561191d565b9350611a888361192e565b8060005b83811015611ab9578151611aa08882611a43565b9750611aab83611a5b565b925050600181019050611a8c565b5085935050505092915050565b60006020820190508181036000830152611ae08184611a68565b905092915050565b60008060008060008060c08789031215611b0557611b046116c3565b5b6000611b1389828a01611747565b9650506020611b2489828a01611711565b9550506040611b3589828a01611747565b9450506060611b4689828a01611711565b9350506080611b5789828a01611747565b92505060a0611b6889828a01611747565b9150509295509295509295565b60008060408385031215611b8c57611b8b6116c3565b5b6000611b9a85828601611711565b9250506020611bab85828601611747565b9150509250929050565b611bbe816116e8565b82525050565b611bcd81611994565b82525050565b600060e082019050611be8600083018a6118bb565b611bf56020830189611bb5565b611c026040830188611bb5565b611c0f60608301876118bb565b611c1c6080830186611bb5565b611c2960a08301856118bb565b611c3660c0830184611bc4565b98975050505050505050565b611c4b816117cd565b82525050565b600061012082019050611c67600083018c6118bb565b611c74602083018b611bb5565b611c81604083018a611bb5565b611c8e60608301896118bb565b611c9b6080830188611bb5565b611ca860a08301876118bb565b611cb560c08301866118bb565b611cc260e08301856118bb565b611cd0610100830184611c42565b9a9950505050505050505050565b7f4e487b7100000000000000000000000000000000000000000000000000000000600052601160045260246000fd5b6000611d1882611726565b9150611d2383611726565b9250828201905080821115611d3b57611d3a611cde565b5b92915050565b6000611d4c82611726565b9150611d5783611726565b9250828203905081811115611d6f57611d6e611cde565b5b92915050565b600082825260208201905092915050565b7f4f6e6c7920737562736372697074696f6e207061727469657320696e20616e2060008201527f61677265656d656e742063616e2063616e63656c20612073756273637269707460208201527f696f6e2100000000000000000000000000000000000000000000000000000000604082015250565b6000611e08604483611d75565b9150611e1382611d86565b606082019050919050565b60006020820190508181036000830152611e3781611dfb565b9050919050565b7f537562736372697074696f6e2068617320616c7265616479206578706972656460008201527f2e00000000000000000000000000000000000000000000000000000000000000602082015250565b6000611e9a602183611d75565b9150611ea582611e3e565b604082019050919050565b60006020820190508181036000830152611ec981611e8d565b9050919050565b6000604082019050611ee56000830185611bb5565b611ef26020830184611bb5565b9392505050565b7f546865726520697320616c726561647920616e206f6e676f696e67207375627360008201527f6372697074696f6e2e0000000000000000000000000000000000000000000000602082015250565b6000611f55602983611d75565b9150611f6082611ef9565b604082019050919050565b60006020820190508181036000830152611f8481611f48565b9050919050565b6000602082019050611fa06000830184611bb5565b92915050565b600081519050611fb581611730565b92915050565b600060208284031215611fd157611fd06116c3565b5b6000611fdf84828501611fa6565b91505092915050565b7f496e73756666696369656e7420746f6b656e2062616c616e636520746f20737560008201527f6273637269626521000000000000000000000000000000000000000000000000602082015250565b6000612044602883611d75565b915061204f82611fe8565b604082019050919050565b6000602082019050818103600083015261207381612037565b9050919050565b7f537562736372697074696f6e20706572696f6420697320696e76616c69642e00600082015250565b60006120b0601f83611d75565b91506120bb8261207a565b602082019050919050565b600060208201905081810360008301526120df816120a3565b9050919050565b60006060820190506120fb6000830186611bb5565b6121086020830185611bb5565b61211560408301846118bb565b949350505050565b612126816117cd565b811461213157600080fd5b50565b6000815190506121438161211d565b92915050565b60006020828403121561215f5761215e6116c3565b5b600061216d84828501612134565b91505092915050565b7f496e73756666696369656e7420746f6b656e20616d6f756e7420666f7220696e60008201527f697469616c20737562736372697074696f6e207061796d656e74210000000000602082015250565b60006121d2603b83611d75565b91506121dd82612176565b604082019050919050565b60006020820190508181036000830152612201816121c5565b9050919050565b60006101008201905061221e600083018b6118bb565b61222b602083018a611bb5565b6122386040830189611bb5565b61224560608301886118bb565b6122526080830187611bb5565b61225f60a08301866118bb565b61226c60c08301856118bb565b61227960e08301846118bb565b9998505050505050505050565b600060a08201905061229b6000830188611bb5565b6122a86020830187611bb5565b6122b560408301866118bb565b6122c260608301856118bb565b6122cf60808301846118bb565b9695505050505050565b7f537562736372697074696f6e2068617320616c7265616479206265656e20706160008201527f696420666f7220647572696e67207468697320706572696f642e000000000000602082015250565b6000612335603a83611d75565b9150612340826122d9565b604082019050919050565b6000602082019050818103600083015261236481612328565b9050919050565b7f5061796d656e7420666f7220737562736372697074696f6e206661696c656421600082015250565b60006123a1602083611d75565b91506123ac8261236b565b602082019050919050565b600060208201905081810360008301526123d081612394565b905091905056fea2646970667358221220ad8aace4d6b0ff6eb475c06867d57ab8cc8916cbf2f3968f476c636fd9a3495f64736f6c63430008110033",
  "linkReferences": {},
  "deployedLinkReferences": {}
}